:100000000C94AC000C94D4000C94D4000C94BD055A
:100010000C94BD050C94BD050C94D4000C94D40034
:100020000C94D4000C94D4000C94D4000C94D40000
:100030000C94D4000C94D4000C94D4000C94D400F0
:100040000C941B050C94D4000C948B050C94650542
:100050000C94D4000C94D4000C94D4000C94D400D0
:100060000C94D4000C94D400390241024B022802B3
:100070004B022A02490252024B024B024B024B0234
:100080004B024B024B024B0252024B024B024B0201
:100090004B024B024446506C61796572204D696E8B
:1000A00069206F6E6C696E652E00322E506C656132
:1000B000736520696E73657274207468652053449B
:1000C00020636172642100312E506C65617365207C
:1000D0007265636865636B2074686520636F6E6E1C
:1000E000656374696F6E2100556E61626C65207482
:1000F0006F20626567696E3A0000000000240027E7
:10010000002A0000000008000201000003040700AC
:10011000000000000000000000000023002600296D
:100120000000000000250028002B00040404040443
:100130000404040202020202020303030303030194
:10014000020408102040800102040810200102046B
:10015000081020006606D90811241FBECFEFD8E092
:10016000DEBFCDBF11E0A0E0B1E0EAE6F2E102C0FF
:1001700005900D92AC34B107D9F722E0ACE4B1E0C0
:1001800001C01D92AB37B207E1F710E0CBEAD0E037
:1001900004C02197FE010E940909CA3AD107C9F794
:1001A0000E942E070C9428090C940000833081F0E3
:1001B00028F4813099F08230A1F008958730A9F0B9
:1001C0008830B9F08430D1F4809180008F7D03C0F5
:1001D000809180008F7780938000089584B58F7719
:1001E00002C084B58F7D84BD08958091B0008F7763
:1001F00003C08091B0008F7D8093B0000895CF93AD
:10020000DF9390E0FC01E15CFE4F2491FC01E55D91
:10021000FE4F8491882361F190E0880F991FFC01C3
:10022000E750FF4FC591D491FC01EF5DFE4FA591C2
:10023000B491611109C09FB7F894888120958223F9
:100240008883EC912E230BC0623061F49FB7F89441
:100250008881322F309583238883EC912E2B2C9329
:100260009FBF06C08FB7F894E8812E2B28838FBFDD
:10027000DF91CF9108953FB7F894809191019091CB
:100280009201A0919301B091940126B5A89B05C05D
:100290002F3F19F00196A11DB11D3FBFBA2FA92F05
:1002A000982F8827820F911DA11DB11DBC01CD0182
:1002B00042E0660F771F881F991F4A95D1F708956E
:1002C0008F929F92AF92BF92CF92DF92EF92FF9266
:1002D0006B017C010E943B014B015C01C114D10404
:1002E000E104F104F1F00E943B01DC01CB0188192B
:1002F0009909AA09BB09883E9340A105B10570F38D
:1003000021E0C21AD108E108F10888EE880E83E0E6
:10031000981EA11CB11CC114D104E104F10419F709
:10032000DDCFFF90EF90DF90CF90BF90AF909F9088
:100330008F900895CF938091360290913702DC011F
:10034000ED91FC910084F185E02D0995892B09F44C
:10035000B9C060E070E0CB010E946001C09154021E
:100360008091360290913702DC01ED91FC9102847C
:10037000F385E02DC11108C00995809340028E37A6
:10038000D1F6809154029AC00995EC2FF0E0EA5C16
:10039000FD4F8287809154028230A1F08930C1F0F4
:1003A000813009F08BC0909141029F3F09F486C0D3
:1003B0001092540281E080935602109259021092DA
:1003C0005802B1C090914202963009F477C0F0CF44
:1003D000809149028F3E61F7E1E4F2E087E492E028
:1003E00020E030E04191240F311D8E179F07D1F797
:1003F0008091470290E0982F882740914802840F0F
:10040000911D3195219531098217930789F6109234
:100410005402E0914302E13409F44DC0E0935702E5
:100420008091450290E0982F882720914602820F04
:10043000911D90935902809358024E2F50E0FA017B
:10044000FA97E631F10570F5EC5CFF4F0C94090961
:1004500085E022C080FF02C089E01EC081FF02C08B
:1004600084E01AC083709927892B09F462C08AE05E
:1004700013C080FF02C087E00FC081FF5AC082E036
:100480000BC080FF02C088E007C081FF52C083E03C
:1004900003C086E001C08BE08093560281E0809328
:1004A0005A0247C081E0809356021092590210927E
:1004B000580280935A0210925B023BC08F5F809378
:1004C000540239CF80915B02882399F12FB7F894B9
:1004D0008091950190919601A0919701B09198011A
:1004E0002FBF409138025091390260913A027091C9
:1004F0003B02841B950BA60BB70B40913C0250911D
:100500003D0260913E0270913F0284179507A60755
:10051000B70778F0109254021092560210925902C6
:100520001092580281E080935A0210925B0280E0A0
:1005300002C080915A02CF91089580934D0270932A
:100540004F0260935002EBE4F2E021E532E080E0FC
:1005500090E04191840F911D2E173F07D1F791959F
:1005600081959109909351028093520280914E029D
:10057000882361F080915B02882341F060E070E0A5
:10058000CB010E9460010E949A01F4CF8091360253
:1005900090913702DC01ED91FC910280F381E02D16
:1005A0004AE050E06AE472E009952FB7F894809130
:1005B000950190919601A0919701B09198012FBF5C
:1005C0008093380290933902A0933A02B0933B0291
:1005D00080914E0291E0811101C090E090935B0206
:1005E000811106C06AE070E080E090E00C94600148
:1005F0000895CF92DF92EF92FF920F931F93CF93C4
:10060000DF936C017A018B01C0E0D0E0CE15DF05ED
:1006100081F0D8016D918D01D601ED91FC91019091
:10062000F081E02DC6010995892B11F02196EECFBE
:100630007E01C701DF91CF911F910F91FF90EF9045
:10064000DF90CF900895FC01538D448D252F30E02D
:10065000842F90E0821B930B541710F0CF960895CF
:1006600001970895FC01918D828D981761F0828D1C
:10067000DF01A80FB11D5D968C91928D9F5F9F73D6
:10068000928F90E008958FEF9FEF0895FC01918D78
:10069000828D981731F0828DE80FF11D858D90E0E5
:1006A00008958FEF9FEF0895FC01918D228D892F82
:1006B00090E0805C9F4F821B91098F73992708956A
:1006C00089E991E00E94540321E0892B09F420E09C
:1006D000822F0895FC01848DDF01A80FB11DA35A5C
:1006E000BF4F2C91848D90E001968F739927848F52
:1006F000A689B7892C93A089B1898C918370806475
:100700008C93938D848D981306C00288F389E02D15
:1007100080818F7D80830895EF92FF920F931F93C6
:10072000CF93DF93EC0181E0888F9B8D8C8D9813A4
:1007300005C0E889F989808185FD26C0F62E0B8DDC
:1007400010E00F5F1F4F0F731127E02E8C8DE81202
:100750000CC00FB607FCFACFE889F989808185FFC4
:10076000F5CFCE010E946A03F1CF8B8DFE01E80F19
:10077000F11DE35AFF4FF0829FB7F8940B8FEA897F
:10078000FB89808180620AC09FB7F894EE89FF8957
:100790006083E889F98980818370806480839FBF4A
:1007A00081E090E0DF91CF911F910F91FF90EF904A
:1007B0000895CF93DF93EC01888D8823C9F0EA89EF
:1007C000FB89808185FD05C0A889B9898C9186FD4A
:1007D0000FC00FB607FCF5CF808185FFF2CFA88947
:1007E000B9898C9185FFEDCFCE010E946A03E7CFD6
:1007F000DF91CF91089580E090E0892B29F00E944D
:10080000600381110C940000089520918E013091B5
:100810008F012817390771F490918C0180918D0117
:10082000981741F0E0918C01F0E0E45BFE4F80818D
:1008300090E008958FEF9FEF089508951F93CF9351
:10084000DF93DC015C968D919C915D97009739F464
:1008500021E030E013963C932E9312973BC05196C3
:10086000ED91FC91529750962C915097322F3095E4
:100870001FB75E964C915E97742F727041FD609524
:10088000F8944081772311F0422B01C04323408329
:10089000EC012197F1F748E0508160FF02C0522B34
:1008A00001C053235083EC012197F1F76695415025
:1008B00099F78081772319F08323808302C0282B46
:1008C00020831FBF5C968D919C915D970197F1F7F6
:1008D00081E090E0DF91CF911F91089520918E01EA
:1008E00030918F012817390771F480918D01209183
:1008F0008C0190E0805C9F4F821B910960E470E066
:100900000E94F508089580E090E0089520918E01FE
:1009100030918F0128173907B9F490918C0180919B
:100920008D01981789F0E0918C01F0E0E45BFE4FB7
:10093000808120918C0130E02F5F3F4F2F73332750
:1009400020938C0190E008958FEF9FEF0895089514
:1009500080E090E00895CF93DF939C013327F90165
:10096000ED5FFE4F8491F901E15CFE4FD491F901F6
:10097000E55DFE4FC491CC23B1F081110E94D600F9
:10098000EC2FF0E0EE0FFF1FE95EFE4FA591B49152
:10099000EC91ED2341F06CE271E080E090E00E9488
:1009A000600181E001C080E0DF91CF91089542E0D5
:1009B00050E06EE271E089E991E00C94F902CF9386
:1009C000DF93009779F0FC0101900020E9F731975F
:1009D000AF01481B590BBC0189E991E00E94F90263
:1009E000EC0102C0C0E0D0E00E94D7048C0F9D1F34
:1009F000DF91CF9108950F931F93CF93DF938C01D5
:100A0000C0E0D0E0F801EC0FFD1F6491662341F0D7
:100A100089E991E00E948C03892B11F02196F2CF95
:100A20000E94D7048C0F9D1FDF91CF911F910F91D2
:100A300008950E9423091F920F920FB60F9211245E
:100A40002F933F938F939F93AF93BF938091950183
:100A500090919601A0919701B091980130919001E9
:100A600023E0230F2D3720F40196A11DB11D05C0F1
:100A700026E8230F0296A11DB11D209390018093BB
:100A8000950190939601A0939701B093980180915E
:100A9000910190919201A0919301B09194010196DE
:100AA000A11DB11D8093910190939201A093930198
:100AB000B0939401BF91AF919F918F913F912F91EE
:100AC0000F900FBE0F901F9018951F920F920FB6A8
:100AD0000F9211242F933F934F935F936F937F93C4
:100AE0008F939F93AF93BF93EF93FF9389E991E027
:100AF0000E946A03FF91EF91BF91AF919F918F91F7
:100B00007F916F915F914F913F912F910F900FBE09
:100B10000F901F9018951F920F920FB60F921124ED
:100B20002F938F939F93EF93FF93E091A901F091FF
:100B3000AA018081E091AF01F091B00182FD12C065
:100B400090818091B2018F5F8F732091B3018217E2
:100B500051F0E091B201F0E0E756FE4F958F80939F
:100B6000B20101C08081FF91EF919F918F912F91F0
:100B70000F900FBE0F901F9018951F920F920FB6F7
:100B80000F9211242F933F934F935F936F937F9313
:100B90008F939F93AF93BF93EF93FF93E0918E0159
:100BA000F0918F01309709F451C0968DA685B785D5
:100BB000858591FF04C09C91892329F447C09C91AD
:100BC000892309F043C0A389B4899C9185898095C4
:100BD00089238C93868997890197F1F7608D718DB0
:100BE000A685B785558538E020E0CB010197F1F760
:100BF000822F90E095958795282F4C91452309F0F9
:100C00002068315091F7868D81FD209580918D016E
:100C100090E001968F73992730918C01381749F035
:100C2000A0918D01B0E0A45BBE4F2C9380938D0109
:100C300003C0868D8160868F828D938D0197F1F739
:100C4000A389B4899C918589892B8C93FF91EF911D
:100C5000BF91AF919F918F917F916F915F914F91D4
:100C60003F912F910F900FBE0F901F9018951F93DB
:100C7000CF93DF93282F30E0F901ED5FFE4F849191
:100C8000F901E15CFE4FD491F901E55DFE4FC4919D
:100C9000CC23C1F0162F81110E94D600EC2FF0E07A
:100CA000EE0FFF1FEF5DFE4FA591B4919FB7F89433
:100CB000111104C08C91D095D82302C0EC91DE2B89
:100CC000DC939FBFDF91CF911F91089510929C01FB
:100CD00010929B0188EE93E0A0E0B0E080939D012C
:100CE00090939E01A0939F01B093A0012EE031E06C
:100CF00030939A012093990125EC30E03093A601BE
:100D00002093A50124EC30E03093A8012093A701A3
:100D100020EC30E03093AA012093A90121EC30E0CF
:100D20003093AC012093AB0122EC30E03093AE0164
:100D30002093AD0126EC30E03093B0012093AF0159
:100D40001092B2011092B3011092B4011092B50149
:100D500010925F0210925E02809360029093610293
:100D6000A0936202B093630280E291E090935D02EF
:100D700080935C02109273021092720210927502BC
:100D800010927402109277021092760210927902F9
:100D90001092780260917A026E7F6D7F60937A0282
:100DA0006695617081E068278BE00E94370661E0FC
:100DB0008BE00E94FF00EAE4F1E0E491E0936C0232
:100DC000E6E3F1E0E491F0E0EE0FFF1FEF5DFE4F90
:100DD0008591949190936E0280936D0260E08AE019
:100DE0000E94FF0080917A0281FD04C061E08AE0E8
:100DF0000E9437068AE080936802E9E4F1E0E4911A
:100E0000E0936902E5E3F1E0E491F0E0EE0FFF1F0B
:100E1000E95EFE4F2591349130936B0220936A0274
:100E200044EF51E060E070E040933C0250933D029B
:100E300060933E0270933F02E0E0F1E0AAE4B2E08A
:100E400001900D928A95E1F71092540282E080930E
:100E5000550210925A0210925B020895789484B55C
:100E6000826084BD84B5816084BD85B5826085BDA6
:100E700085B5816085BD80916E00816080936E0034
:100E80001092810080918100826080938100809126
:100E900081008160809381008091800081608093D7
:100EA00080008091B10084608093B1008091B00097
:100EB00081608093B00080917A00846080937A0092
:100EC00080917A00826080937A0080917A008160BC
:100ED00080937A0080917A00806880937A001092E3
:100EE000C100E091A901F091AA0182E08083E09124
:100EF000A501F091A6011082E091A701F091A8014F
:100F00008FEC80831092B101E091AD01F091AE01C0
:100F100086E08083E091AB01F091AC01808180613B
:100F20008083E091AB01F091AC0180818860808387
:100F3000E091AB01F091AC01808180688083E09109
:100F4000AB01F091AC0180818F7D808360E082E015
:100F50000E94FF0060E083E00E94FF0060E084E008
:100F60000E94FF0010927702109276021092750292
:100F70001092740210927302109272028DE991E045
:100F8000909379028093780290916802963108F0EC
:100F900058C02DEB30E030937302209372022BE99E
:100FA00031E030937502209374022CE231E03093EB
:100FB00077022093760240916800983058F031E033
:100FC0009E3008F430E021E0822F01C0880F3A956E
:100FD000EAF701C084E0842B80936800983038F0F1
:100FE0009E3040F0963148F020E030E008C02DE619
:100FF00030E005C02BE630E002C02CE630E0309354
:10100000700220936F02983030F481E001C0880FA5
:101010009A95EAF70EC0292F30E09E3018F4285038
:10102000310902C02E50310981E001C0880F2A9594
:10103000EAF780937102809178029091790201978A
:10104000F1F78091760290917702892B49F1E09136
:101050008E01F0918F0122E0EC35F20709F1309713
:1010600039F0A389B4899C918589809589238C93D3
:1010700080917A028E7F80937A0210928D01109275
:101080008C018CE592E090938F0180938E01E0912A
:101090006F02F0917002908180917102892B8083A0
:1010A0008CE592E0909337028093360281E0809342
:1010B0004E0260E070E08CE00E949D028FB7F894D1
:1010C000C0909501D0909601E0909701F090980122
:1010D0008FBF0E949A0181111AC02FB7F894809196
:1010E000950190919601A0919701B09198012FBF21
:1010F0008C199D09AE09BF09813D9740A105B10535
:1011000030F460E070E0CB010E946001E2CF68EC57
:1011100070E080E090E00E94600110925A0280919D
:101120005602843079F0893069F088EE90E00E94B0
:10113000FB0487EC90E00E94FB048AEA90E00E94A6
:10114000FB04FFCF84E990E00E94FB0465E070E0BF
:1011500086E00E949D0282E090E00E94AB04D82FBE
:1011600083E090E00E94AB04C82F84E090E00E94EE
:10117000AB04DD2339F081E391E00E94DF0461E0FC
:1011800070E011C0CC2339F08AE391E00E94DF04C3
:1011900062E070E008C0882349F083E491E00E9497
:1011A000DF0463E070E083E00E949D020E94FB0385
:1011B000D2CF80E291E090935D0280935C028091B7
:1011C0008E0190918F018C55924071F4E0916F02E5
:1011D000F0917002908180917102809589238083C3
:1011E00010928F0110928E01089597FB072E16F42E
:1011F000009407D077FD09D00E940F0907FC05D0A5
:101200003EF4909581959F4F0895709561957F4F1D
:101210000895EE0FFF1F0590F491E02D0994AA1B8D
:10122000BB1B51E107C0AA1FBB1FA617B70710F0D1
:10123000A61BB70B881F991F5A95A9F78095909503
:10124000BC01CD01089581E090E0F8940C94280948
:1012500010E0CBEAD0E004C0FE010E94090921960B
:0A126000CC3AD107C9F7F894FFCF8C
:10126A007EFF06000100000000EF000000008C0372
:10127A00F9022303D9035403320346030000000092
:10128A001E04F902A8041D046E04860405040D0A4E
:10129A0000427574746F6E203100427574746F6EFB
:0C12AA00203200427574746F6E20330017
:00000001FF
